:100000003DC144C143C142C141C140C13FC13EC1E4
:100010003DC13CC13BC13AC106C238C137C10040F5
:100020007A10F35A00A0724E18090010A5D4E80007
:1000300000E87648170000E40B54020000CA9A3B1F
:10004000000000E1F50500008096980000004042A5
:100050000F000000A0860100000010270000000033
:10006000E803000000006400000000000A00000037
:1000700000000100000000002C76D888DC674F08E3
:1000800023DFC1DFAE59E1B1B796E5E3E453C63AE9
:10009000E651997696E8E6C28426EB898C9B62ED60
:1000A000407C6FFCEFBC9C9F40F2BAA56FA5F4901A
:1000B000055A2AF75C936B6CF9676DC11BFCE0E491
:1000C0000D47FEF520E6B500D0ED902E03009435E7
:1000D00077050080841E080000204E0A000000C83A
:1000E0000C333333330F986E12831141EF8D21148B
:1000F000893BE65516CFFEE6DB18D1844B381BF75B
:100100007C1D901DA4BBE424203284725E228100F9
:10011000C9F124ECA1E53D2720202020202020004B
:10012000544F4F20484F540054454D503A00000062
:1001300000000000002F00000007000700147F14DB
:100140007F14242A7F2A1262640813233649552219
:10015000500005030000001C2241000041221C0049
:1001600014083E081408083E08080000A0600008B3
:1001700008080808006060000020100804023E51D2
:1001800049453E00427F4000426151494621414578
:100190004B311814127F1027454545393C4A4949CF
:1001A0003001710905033649494936064949291E76
:1001B00000363600000056360000081422410014B4
:1001C0001414141400412214080201510906324982
:1001D00059513E7C1211127C7F494949363E4141BA
:1001E00041227F4141221C7F494949417F09090938
:1001F000013E4149497A7F0808087F00417F41005C
:100200002040413F017F081422417F404040407F11
:10021000020C027F7F0408107F3E4141413E7F096E
:100220000909063E4151215E7F091929464649497F
:10023000493101017F01013F4040403F1F204020E4
:100240001F3F4038403F63140814630708700807D5
:100250006151494543007F414100020408102000DC
:1002600041417F0004020102044040404040A81F79
:100270002200032000DA028D14AFA1C811241FBE92
:10028000CFE5D2E0DEBFCDBF7AD1BFC6B9CE83E025
:1002900087B983E886B90895369A3699FECF84B136
:1002A00095B10895EF92FF920F931F93CF93DF9331
:1002B00000D000D000D0CDB7DEB7E82E1D82F12CE3
:1002C00000E010E01E822D812E112CC0822F90E0C4
:1002D000B0E0A0E089839A83AB83BC83BC01CD01ED
:1002E000D3D29B01AC01F9820A831B83AE81AC831C
:1002F00069817A818B819C815DD269837A838B83CA
:100300009C8369817A818B819C8126960FB6F894B3
:10031000DEBF0FBECDBFDF91CF911F910F91FF9038
:10032000EF900895B9DF9C0150E040E029833A83C3
:100330004B835C83CA01B901A5D220E030EC4FE7C2
:1003400054E469837A838B839C8369817A818B816E
:100350009C8130D223E333E343E550E469837A831D
:100360008B839C8369817A818B819C811DD320E062
:1003700030E040E05FE369837A838B839C8369810B
:100380007A818B819C81B1D120E030E048EC52E44D
:1003900069837A838B839C8369817A818B819C8139
:1003A00003D39B01AC01F9820A831B838E818C836A
:1003B00069817A818B819C8199D1F62E072F182F24
:1003C0009E83A3ECB9E01197F1F700C00000BD8156
:1003D000BF5FBD8378CFCF93DF9300D000D00F9263
:1003E000CDB7DEB7B22F21E02D832B2F69837A831F
:1003F0008B839C8369817A818B819C81D1D21816F1
:100400000CF01D828D810F900F900F900F900F9028
:10041000DF91CF910895F894A89588E181BD80E699
:1004200081BD78940895189585B7877E806185BFD2
:1004300085B7806285BF85B7846885BF8B7F85BFA0
:10044000889585B78F7D85BF089587B38A7F87BBE1
:1004500088B38A7F88BB089598E0B89A87FDB898DA
:10046000BA98880FBA9A9150C1F7B898BA98BA9AC0
:100470000895B89ABA9AF0CFB89ABA98B8980895E9
:10048000CF93DF93E2DF88E7F4DF80E0E5DFCEE6BD
:10049000D2E0FE018491E0DF2196F2E0CA37DF0767
:1004A000C1F7DF91CF91E8CFCF93C82F88E7E1DF85
:1004B00080E0D2DF83EDD0DF8C2FCEDFCF91DCCF99
:1004C0001F93CF93DF93C82F88E7D3DF80E4C4DF87
:1004D0008C2FCC0F990B8097EC01CC0FDD1FCC0F2C
:1004E000DD1FC80FD91F80E0B7DFC25DDE4F15E00A
:1004F000FE018491B1DF115021961111F9CFDF91E6
:10050000CF911F91B9CFCF93DF93EC0188E7B1DF93
:1005100080E4A2DFFE018491811103C0DF91CF91BD
:10052000ABCFCEDF2196F6CFCF93DF93C82FD62F58
:1005300088E79FDF80E090DF8C2F8F708DDF8C2F1E
:1005400082958F70806188DF8D2F8770806B84DF4C
:10055000DF91CF9191CFCF93DF9360E080E0E4DF34
:1005600088E787DF80E478DFC0E0D2E080E074DFF6
:100570002197E1F781DF80E0DF91CF9195CFCDB773
:10058000DEB760970FB6F894DEBF0FBECDBF78DF41
:100590007EDE88E76EDF80E05FDF81EA5DDF88EC8A
:1005A0005BDF6ADFD8DF37DF5E0187E0A80EB11CB2
:1005B000FE0131964F0189E175DE6B017C0120E07F
:1005C00030E040E151E46D87DE868F87F88A6D85E3
:1005D0007E858F859889E8D120E030E040EA50E4BC
:1005E0006D877E878F87988B6D857E858F859889AF
:1005F000E1D020E030E040E052E46D877E878F87D5
:10060000988B6D857E858F85988970D0850121E0D6
:1006100044E06D877E878F87988B6D857E858F857B
:10062000988951D2840121E044E0CD86DE86EF86B0
:10063000F88A6D857E858F85988945D260E080E057
:1006400073DF88E291E05FDF60E088E26DDF10E059
:10065000F50101900020E9F73197EA19FB09812F94
:1006600090E08E179F0770F186E42ADF80E228DF92
:100670008FE226DF80E224DF10E0F4010190002009
:10068000E9F73197E819F909812F90E08E179F0754
:1006900000F183E415DF20E030E040ED51E4CD8649
:1006A000DE86EF86F88A6D857E858F85988978D17C
:1006B00062E01816ACF480E037DF80E291E023DFDF
:1006C000B3DE79CF8A0D9B1DFC018081F9DE1F5FAF
:1006D000BFCF880D991DFC018081F2DE1F5FCDCF59
:1006E00080E022DF88E191E0EACF5058BB27AA27BB
:1006F0000ED01CC10DD130F012D120F031F49F3F4B
:1007000011F41EF402C10EF4E095E7FBF8C0E92FE6
:100710001ED180F3BA17620773078407950718F094
:1007200071F49EF536C10EF4E0950B2EBA2FA02D74
:100730000B01B90190010C01CA01A0011124FF278E
:10074000591B99F0593F50F4503E68F11A16F04089
:10075000A22F232F342F4427585FF3CF4695379588
:100760002795A795F0405395C9F77EF41F16BA0B4D
:10077000620B730B840BBAF09150A1F0FF0FBB1FFB
:10078000661F771F881FC2F70EC0BA0F621F731F44
:10079000841F48F4879577956795B795F7959E3FA1
:1007A00008F0B3CF9395880F08F09927EE0F97952F
:1007B000879508950CD0BAC0B2D040F0A9D030F0DF
:1007C00021F45F3F19F09BC05111E4C09EC0BFD01F
:1007D00098F39923C9F35523B1F3951B550BBB2708
:1007E000AA2762177307840738F09F5F5F4F220FB5
:1007F000331F441FAA1FA9F333D00E2E3AF0E0E8AE
:1008000030D091505040E695001CCAF729D0FE2FF9
:1008100027D0660F771F881FBB1F2617370748078B
:10082000AB07B0E809F0BB0B802DBF01FF27935841
:100830005F4F2AF09E3F510568F061C0ABC05F3F3B
:10084000ECF3983EDCF3869577956795B795F79529
:100850009F5FC9F7880F911D9695879597F9089521
:10086000E1E0660F771F881FBB1F621773078407BD
:10087000BA0720F0621B730B840BBA0BEE1F88F7CC
:10088000E0950895E89409C097FB3EF49095809513
:10089000709561957F4F8F4F9F4F9923A9F0F92F46
:1008A00096E9BB279395F695879577956795B795C4
:1008B000F111F8CFFAF4BB0F11F460FF1BC06F5FAA
:1008C0007F4F8F4F9F4F16C0882311F096E911C0BC
:1008D000772321F09EE8872F762F05C0662371F0DD
:1008E00096E8862F70E060E02AF09A95660F771FF1
:1008F000881FDAF7880F9695879597F9089597F9E5
:100900009F6780E870E060E008959FEF80EC0895B5
:1009100000240A94161617061806090608950024DE
:100920000A9412161306140605060895092E039458
:10093000000C11F4882352F0BB0F40F4BF2B11F4CC
:1009400060FF04C06F5F7F4F8F4F9F4F089557FD2B
:100950009058440F551F59F05F3F71F04795880F2D
:1009600097FB991F61F09F3F79F0879508951216C4
:1009700013061406551FF2CF4695F1DF08C0161670
:1009800017061806991FF1CF869571056105089421
:100990000895E894BB2766277727CB0197F9089538
:1009A0006ED008F48FEF08950AD0C0CFB1DF28F0E1
:1009B000B6DF18F0952309F0A2CFA7CFEBCFC7DFA2
:1009C000A8F39923D9F35523C9F3950F50E0551F88
:1009D000AA27EE27FF27BB2700240894679520F459
:1009E000E20FF31FB41F0A1E220F331F441FAA1F5A
:1009F0006695A9F7779530F4F30FB41F0A1E121EFF
:100A000008F46395330F441FAA1F221F769599F7A8
:100A1000879520F4B40F0A1E121E631F440FAA1FED
:100A2000221F331F8695A9F7862F712D602D112463
:100A30009F5750408AF0E1F088234AF0EE0FFF1FE5
:100A4000BB1F661F771F881F91505040A9F79E3F1C
:100A5000510570F054CF9ECF5F3FECF3983EDCF32E
:100A6000869577956795B795F795E7959F5FC1F759
:100A7000FE2B880F911D9695879597F90895990FEC
:100A80000008550FAA0BE0E8FEEF16161706E80758
:100A9000F907C0F012161306E407F50798F0621B79
:100AA000730B840B950B39F40A2661F0232B242B4E
:100AB000252B21F408950A2609F4A140A6958FEF6D
:100AC000811D811D0895EF920F931F93CF93DF93A4
:100AD00000D000D00F92CDB7DEB7322F0D8354E097
:100AE00047FD54E1242F27FD2195E52E032F4D814D
:100AF000512F69837A838B839C8369817A818B816F
:100B00009C810DD08D81912F0F900F900F900F90A1
:100B10000F90DF91CF911F910F91EF9008956F92F9
:100B20007F929F92AF92BF92CF92DF92EF92FF920D
:100B30000F931F93CF93DF93CDB7DEB72D970FB6EB
:100B4000F894DEBF0FBECDBF6A01122FB02EFBE3BB
:100B50006F2E601608F40BE3FF24F394F00E0F2DB4
:100B600027E0AE014F5F5F4F6A877B878C879D8749
:100B70006A857B858C859D8570D1AC01A9808A2D85
:100B800089703DE2813039F03BE2E1FC04C03E2D4A
:100B90003170E0FC30E20E2D0071EA2DE870A3FE0A
:100BA00059C083E0311184E08117A8F5181B002398
:100BB00009F43FC0332319F0F60131936F01F601B8
:100BC0003396E2FE3BC08EE4D6018C9391E41196FD
:100BD0009C93119712968C93812F9E2F2F2F30E28A
:100BE000811131C0E10FF11D10828EEF9FEF2D9624
:100BF0000FB6F894DEBF0FBECDBFDF91CF911F912E
:100C00000F91FF90EF90DF90CF90BF90AF909F90AB
:100C10007F906F90089510E0CACFE92FF22F419393
:100C200081509E2F2F2F8111F8CFC10ED11C10E0C3
:100C3000C1CF812F9C2D2D2D40E2F5CF8EE6D60120
:100C40008C9391E6C4CFA92FB22F3D9381509A2F58
:100C50002B2FC6CF2A2D2470A2FE47C083E031116E
:100C600084E0811710F4E12FE81B002349F13323BE
:100C700019F0D6013D936D01C6010396E2FE25C031
:100C800029E4D6012C932EE411962C93119726E497
:100C900012962C932E2F382F492F50E221111EC06F
:100CA000E80FF92FF11DA0CFA92FB22F4D9381503E
:100CB0009A2F2B2F8111F8CFCE0ED11CE0E0D7CF89
:100CC0008E2F9C2D2D2D40E2F5CF29E6D6012C93B9
:100CD0002EE611962C93119726E6DACFA32FB42F88
:100CE0005D9321503A2F4B2FD9CFBA0157FF02C045
:100CF00070E060E0E1E0F0E0311102C0F0E0E0E03F
:100D0000CB010196E80FF91F8B2D90E0DC011196C5
:100D1000B11002C0B0E0A0E0EA0FFB1F1E171F06D3
:100D200019F014F0212F2E1B011194C0D601E22FCF
:100D3000F0E2E3FE51C0332329F0F60131936F0155
:100D4000011108C0F601322FA0E331114BC0C20ED1
:100D5000D11C20E00F2D040F3A81FA2DF071BF2E27
:100D6000A4FE03C0313309F401501016F4F5093024
:100D700008F008E0DB017A01E01AF10800271127EA
:100D8000081B190BEEE29E2E4A175B0784F1EA1648
:100D9000FB066CF5FA01EA1BFB0B66246394712CCD
:100DA0006C0E7D1EE60DF71DA18011973601EFEF49
:100DB0006E1A7E0AA017B107ECF0F601A082AF3FD1
:100DC000BA0731F43601E2E06E0E711CF601918231
:100DD0006301DACFFD93E150E111FCCFC20ED11CCB
:100DE00020E0A9CFA1933150B0CF01E0C3CFE0E321
:100DF000AE2EDBCF80959095861797070CF5861B56
:100E0000970B019661507109860F971F4817590774
:100E100041F4363320F4353321F4B11002C081E3BC
:100E2000A82ED601AC92822F962D372D40E281114B
:100E30000AC0F301E20FF11D108290E080E0D7CEEE
:100E400090E080E0DFCFA92FB32F4D9381509A2FF0
:100E50003B2FEDCF311171CF7DCF283008F027E047
:100E60003327DA01990F311D87FD916000966105E6
:100E7000710539F432602E5F3D9330E32A95E1F736
:100E800008959F3F30F080387105610509F03C5F9F
:100E90003C5F3D93913008F08068911DDF93CF93C4
:100EA0001F930F93FF92EF92192F987F9695E92F3A
:100EB00096959695E90FFF27E858FF4F9927332716
:100EC000EE24FF24A701E70105900894079428F475
:100ED000360FE71EF81E491F511D660F771F881F2A
:100EE000991F0694A1F70590079428F4E70EF81EC1
:100EF000491F561FC11D770F881F991F661F069433
:100F0000A1F70590079428F4F80E491F561FC71F34
:100F1000D11D880F991F661F771F0694A1F70590B2
:100F2000079420F4490F561FC71FD81F990F661F3B
:100F3000771F881F0694A9F784911095177041F0C8
:100F4000D695C79557954795F794E7941A95C1F7A5
:100F5000EEE1F0E0689415901591359165919591C9
:100F600005907FE27395E118F10A430B560BC90B0C
:100F7000D009C0F7E10CF11E431F561FC91FD01D39
:100F80007EF4703311F48A95E6CFE894015030F086
:100F9000080F0AF40027021708F4202F2395022FC8
:100FA0007A3328F079E37D932A95E9F710C07D9391
:100FB0002A9589F60694979567953795179517940E
:100FC000E118F10A430B560BC90BD00998F0239591
:100FD0007E9173957A3308F070E37C932013B8F711
:100FE0007E9170617D9330F0839571E37D9370E322
:100FF0002A95E1F71124EF90FF900F911F91CF9167
:0E100000DF91992787FD90950895F894FFCF12
:00000001FF
