:10000000B9C0C0C0BFC0BEC0BDC0BCC0BBC0BAC00C
:10001000B9C0B8C0B7C0B6C0B5C0B4C0B3C0434F14
:10002000554E543A00000000000000002F00000070
:1000300007000700147F147F14242A7F2A126264A9
:1000400008132336495522500005030000001C22E6
:1000500041000041221C0014083E081408083E0814
:10006000080000A0600008080808080060600000A0
:1000700020100804023E5149453E00427F400042A4
:10008000615149462141454B311814127F102745D3
:100090004545393C4A49493001710905033649490A
:1000A0004936064949291E003636000000563600FA
:1000B00000081422410014141414140041221408DE
:1000C0000201510906324959513E7C1211127C7FBE
:1000D000494949363E414141227F4141221C7F49E5
:1000E0004949417F090909013E4149497A7F080888
:1000F000087F00417F41002040413F017F081422DA
:10010000417F404040407F020C027F7F0408107F07
:100110003E4141413E7F090909063E4151215E7F32
:1001200009192946464949493101017F01013F40EA
:1001300040403F1F2040201F3F4038403F6314088D
:10014000146307087008076151494543007F414126
:100150000002040810200041417F00040201020453
:100160004040404040A81F2200032000DA028D14C6
:10017000AFA1C80011241FBECFE5D2E0DEBFCDBFC6
:100180009CD010C13DCF87B38A7F87BB88B38A7F5D
:1001900088BB089598E0B89A87FDB898BA98880FF8
:1001A000BA9A9150C1F7B898BA98BA9A0895B89A7D
:1001B000BA9AF0CFB89ABA98B8980895CF93DF93C7
:1001C000E2DF88E7F4DF80E0E5DFC5E6D1E0FE01AD
:1001D0008491E0DF2196F1E0C137DF07C1F7DF91BD
:1001E000CF91E8CFCF93C82F88E7E1DF80E0D2DF5F
:1001F00083EDD0DF8C2FCEDFCF91DCCF1F93CF9359
:10020000DF93C82F88E7D3DF80E4C4DF8C2FCC0FC7
:10021000990B8097EC01CC0FDD1FCC0FDD1FC80FB1
:10022000D91F80E0B7DFCB5DDF4F15E0FE01849181
:10023000B1DF115021961111F9CFDF91CF911F91AC
:10024000B9CFCF93DF93EC0188E7B1DF80E4A2DF81
:10025000FE018491811103C0DF91CF91ABCFCEDF3E
:100260002196F6CFCF93DF93C82FD62F88E79FDF55
:1002700080E090DF8C2F8F708DDF8C2F82958F70B8
:10028000806188DF8D2F8770806B84DFDF91CF9155
:1002900091CFCF93DF9360E080E0E4DF88E787DFF2
:1002A00080E478DFC0E0D2E080E074DF2197E1F7FE
:1002B00081DF80E0DF91CF9195CF00D00F92CDB755
:1002C000DEB77CDF88E773DF80E064DF81EA62DF2E
:1002D00088EC60DF6FDFDDDFF12CE12C8E010F5F3A
:1002E0001F4F61E08AE0BEDF8EE190E0AADF61E0AF
:1002F00082E3B8DF2FEFE21AF20A4AE0B801C70141
:100300001ED0D12CF80101900020E9F73197E01BB5
:10031000F10B8D2D90E08E179F0750F0FFE32DE03D
:1003200083E0F15020408040E1F700C00000D9CFC9
:10033000800F911FFC01808161DFD394E3CFBB2745
:100340004A3031F4992322F4BDE2909581959F4F74
:1003500001C0BB27FB015527AA27880F991FAA1F99
:10036000A41710F0A41B83955051B9F7A05DAA33D0
:1003700008F0A95DA193009779F7B111B19311929B
:10038000CB0100C0DC01FC01672F71917723E1F7FD
:10039000329704C07C916D9370836291AE17BF0752
:0803A000C8F30895F894FFCFA3
:00000001FF
