:10000000B9C0C0C0BFC0BEC0BDC0BCC0BBC0BAC00C
:10001000B9C0B8C0B7C0B6C0B5C0B4C0B3C0434F14
:10002000554E543A00000000000000002F00000070
:1000300007000700147F147F14242A7F2A126264A9
:1000400008132336495522500005030000001C22E6
:1000500041000041221C0014083E081408083E0814
:10006000080000A0600008080808080060600000A0
:1000700020100804023E5149453E00427F400042A4
:10008000615149462141454B311814127F102745D3
:100090004545393C4A49493001710905033649490A
:1000A0004936064949291E003636000000563600FA
:1000B00000081422410014141414140041221408DE
:1000C0000201510906324959513E7C1211127C7FBE
:1000D000494949363E414141227F4141221C7F49E5
:1000E0004949417F090909013E4149497A7F080888
:1000F000087F00417F41002040413F017F081422DA
:10010000417F404040407F020C027F7F0408107F07
:100110003E4141413E7F090909063E4151215E7F32
:1001200009192946464949493101017F01013F40EA
:1001300040403F1F2040201F3F4038403F6314088D
:10014000146307087008076151494543007F414126
:100150000002040810200041417F00040201020453
:100160004040404040A81F2200032000DA028D14C6
:10017000AFA1C80011241FBECFE5D2E0DEBFCDBFC6
:10018000A3D00DC13DCF87B38A7F87BB88B38A7F59
:1001900088BB089598E0B89A87FDB898BA98880FF8
:1001A000BA9A9150C1F7B898BA980000BA9A0895CF
:1001B000B89ABA9AEFCFB89ABA98B8980895CF93E8
:1001C000DF93E1DF88E7F4DF80E0E4DFC5E6D1E03C
:1001D000FE018491DFDF2196F1E0C137DF07C1F72F
:1001E000DF91CF91E8CFCF93C82F88E7E1DF80E0A0
:1001F000D1DF83EDCFDF8C2FCDDFCF91DCCF0F931D
:100200001F93CF93DF93C82F88E7D2DF80E4C2DF4C
:100210008C2FCC0F990B8097EC01CC0FDD1FCC0FEE
:10022000DD1FC80FD91F80E0B5DF10E000E0CB5D17
:10023000DF4FFE01E00FF11F8491ACDF0F5F1F4F16
:1002400005301105B1F7DF91CF911F910F91B3CF19
:10025000CF93DF93EC0188E7ABDF80E49BDFFE0107
:100260008491811103C0DF91CF91A5CFC8DF219682
:10027000F6CFCF93DF93C82FD62F88E799DF80E0A2
:1002800089DF8C2F8F7086DF8C2F82958F70806135
:1002900081DF8D2F8770806B7DDFDF91CF918BCFDA
:1002A000CF93DF9360E080E0E4DF88E781DF80E4E4
:1002B00071DFC0E0D2E080E06DDF2197E1F77BDF06
:1002C00080E0DF91CF918FCFCF93DF9300D01F924B
:1002D000CDB7DEB774DFE4DFF12CE12C8E010F5FC8
:1002E0001F4F61E08AE0C5DF8EE190E0B1DF61E0A1
:1002F00082E3BFDF8FEFE81AF80A4AE0B801C701CE
:100300001BD0D12CF80101900020E9F73197E01BB8
:10031000F10B8D2D90E08E179F0738F087EA91E65C
:100320000197F1F700C00000DCCF800F911FFC01A6
:10033000808165DFD394E6CFBB274A3031F499231F
:1003400022F4BDE2909581959F4F01C0BB27FB0130
:100350005527AA27880F991FAA1FA41710F0A41BBE
:1003600083955051B9F7A05DAA3308F0A95DA19318
:10037000009779F7B111B1931192CB0100C0DC0164
:10038000FC01672F71917723E1F7329704C07C91CC
:100390006D9370836291AE17BF07C8F30895F89408
:0203A000FFCF8D
:00000001FF
