:10000000B8C0BFC0BEC0BDC0BCC0BBC0BAC0B9C014
:10001000B8C0B7C0B6C0B5C0B4C0B3C0B2C0544514
:100020004D503A00000000000000002F00000007C3
:10003000000700147F147F14242A7F2A12626408A8
:10004000132336495522500005030000001C2241AD
:10005000000041221C0014083E081408083E08084D
:100060000000A06000080808080800606000002088
:10007000100804023E5149453E00427F4000426163
:100080005149462141454B311814127F10274545EF
:1000900045393C4A49493001710905033649494906
:1000A00036064949291E0036360000005636000043
:1000B00008142241001414141414004122140802DC
:1000C00001510906324959513E7C1211127C7F4977
:1000D0004949363E414141227F4141221C7F4949E5
:1000E00049417F090909013E4149497A7F080808C9
:1000F0007F00417F41002040413F017F08142241A1
:100100007F404040407F020C027F7F0408107F3E0A
:100110004141413E7F090909063E4151215E7F0967
:10012000192946464949493101017F01013F4040B3
:10013000403F1F2040201F3F4038403F63140814B9
:100140006307087008076151494543007F4141003A
:1001500002040810200041417F0004020102044013
:1001600040404040A81F2200032000DA028D14AF57
:10017000A1C811241FBECFE5D2E0DEBFCDBFA3D002
:1001800057C13ECF87B38A7F87BB88B38A7F88BB3E
:10019000089598E0B89A87FDB898BA98880FBA9AE7
:1001A0009150C1F7B898BA980000BA9A0895B89AD1
:1001B000BA9AEFCFB89ABA98B8980895CF93DF93C8
:1001C000E1DF88E7F4DF80E0E4DFC4E6D1E0FE01B0
:1001D0008491DFDF2196F1E0C037DF07C1F7DF91BF
:1001E000CF91E8CFCF93C82F88E7E1DF80E0D1DF60
:1001F00083EDCFDF8C2FCDDFCF91DCCF0F931F931B
:10020000CF93DF93C82F88E7D2DF80E4C2DF8C2F43
:10021000CC0F990B8097EC01CC0FDD1FCC0FDD1FAD
:10022000C80FD91F80E0B5DF10E000E0CC5DDF4FE4
:10023000FE01E00FF11F8491ACDF0F5F1F4F05300F
:100240001105B1F7DF91CF911F910F91B3CFCF93EC
:10025000DF93EC0188E7ABDF80E49BDFFE01849154
:10026000811103C0DF91CF91A5CFC8DF2196F6CFD2
:10027000CF93DF93C82FD62F88E799DF80E089DFFF
:100280008C2F8F7086DF8C2F82958F70806181DF3D
:100290008D2F8770806B7DDFDF91CF918BCFCF93D8
:1002A000DF9360E080E0E4DF88E781DF80E471DFF6
:1002B000C0E0D2E080E06DDF2197E1F77BDF80E0F6
:1002C000DF91CF918FCFCF93DF9300D01F92CDB727
:1002D000DEB780E187BB72DFE2DF10E000E0CE0135
:1002E00001967C0184E6A82EB12C9AE0C92ED12C6F
:1002F00020E1822E61E084E1BBDF8EE190E0A7DFA8
:1003000061E082E3B5DF0F5F1F4F4AE0B701C8012C
:100310005CD0912CF70101900020E9F73197EE199C
:10032000FF09892D90E08E179F0708F163E084E1B3
:100330009FDFC801B50122D080E3860F5FDFC801CF
:10034000B6011CD0982ECB01B60118D0805D56DFC7
:100350008EE254DF80E3890D51DF88B3882588BBA6
:1003600083ED90E30197F1F700C00000C3CF8E0D3D
:100370009F1DFC01808142DF9394CCCF97FB072E19
:1003800016F4009406D077FD08D00BD007FC05D0FA
:100390003EF4909581959F4F0895709561957F4F9C
:1003A0000895AA1BBB1B51E107C0AA1FBB1FA617BC
:1003B000B70710F0A61BB70B881F991F5A95A9F70E
:1003C00080959095BC01CD010895BB274A3031F44A
:1003D000992322F4BDE2909581959F4F01C0BB27E0
:1003E000FB015527AA27880F991FAA1FA41710F0F1
:1003F000A41B83955051B9F7A05DAA3308F0A95DFD
:10040000A193009779F7B111B1931192CB0100C07C
:10041000DC01FC01672F71917723E1F7329704C06B
:100420007C916D9370836291AE17BF07C8F30895F6
:04043000F894FFCF6E
:00000001FF
